:0C0000000C9438000C9400000C940000DC
:10000C000C9400000C9400000C9400000C94000064
:10001C000C9400000C9400000C9400000C94000054
:10002C000C9400000C9400000C9400000C94000044
:10003C000C9400000C9400000C9400000C94000034
:10004C000C9400000C9400003F0006005B004F0075
:10005C0066006D007D0007007F006F0013006001DB
:10006C0054000000F894EE27ECBBF1E0FBBFEBBFB3
:10007C00E5BF8DE0A2E0BB27ED938A95E9F780E020
:10008C0094E0A0E6ED930197E9F7E8E6F0E08591BE
:10009C009591009761F0A591B59105901590BF01D0
:1000AC00F00105900D920197E1F7FB01F0CFEFE520
:1000BC00EDBFE4E0EEBFC0E6D1E00C946500E3E0F8
:1000CC00F0E0FA93EA93A8ECB0E033D0E0EAF0E188
:1000DC00FA93EA93E3E0EA93A4E0B0E043D0F6CFDE
:1000EC00FFCFAA93E881F0E0E130A0E0FA0729F411
:1000FC00EFEFEABBE981EBBB1AC0E230A0E0FA07F4
:10010C0029F4EFEFE7BBE981E8BB11C0E330A0E0D5
:10011C00FA0729F4EFEFE4BBE981E5BB08C0E43052
:10012C00A0E0FA0721F4EFEFE1BBE981E2BB2396F3
:10013C000895BA93AA931A930A9300E010E0EC8105
:10014C00FD810E171F0754F467D06BD0EFEFF0E072
:10015C00FA93EA9366D00F5F1F4FF1CF1981088194
:10016C0026960895BA93AA9324970E947801AD8598
:10017C00BE85E8EEF3E00E9453018F01AD85BE858C
:10018C00E8EEF3E00E945801DF01E4E6F0E00E94A3
:10019C0053019F01AD85BE85E4E6F0E00E94580155
:1001AC00DF01EAE0F0E00E945301AF01AD85BE85AE
:1001BC00EAE0F0E00E945801E887F987E0E0EE837E
:1001CC00EF83AE81BF8154971CF5E8E0F0E02FD0AF
:1001DC00E885F98530D0AC8584DFE4E0F0E027D009
:1001EC00FA0129D0AC857DDFE2E0F0E020D0F90106
:1001FC0022D0AC8576DFE1E0F0E019D0F8011BD01D
:10020C00AC856FDFEE81FF813196EE83FF83D9CF12
:10021C000E947F012F960895E0E0F0E0FA93EA93B4
:10022C000895A2E05EDFAA81BB810C943201FA939F
:10023C00EA93AC8556CFA0E6B1E0EE0FFF1FAE0FF0
:10024C00BF1F0E947401FA93EA93AE854ADFA5E0C2
:10025C00B0E00E943201E0CF109639F080ED97E0CB
:10026C000197F1F7A8951197C9F70895F195E195C4
:10027C00F04008950024112490E1AA0FBB1F001C2C
:10028C00111C0E1A1F0A18F40E0E1F1E01C0A160BD
:10029C009A9599F7FD01D001089512D0EBDF0EF479
:1002AC00E5DF0895E894B7FF04C0A095B0951196CA
:1002BC006894F7FDDBDFDEDFFD010EF4D7DF089578
:1002CC00E894F7FF02C0D2DF6894B7FF06C0A09590
:1002DC00B095119600F8039400FA0895ED91FC91F5
:1002EC00119708955A934A933A932A931A930A931F
:1002FC0008955D814C813B812A8119810881089583
:00000001FF
