:0E0000000C945B000C9400000C9400000C9417
:10000E0000000C9400000C9400000C9400000C9462
:10001E0000000C9400000C9400000C9400000C9452
:10002E0088000C9400000C9400000C9400000C94BA
:10003E0000000C9400000C9400000C9400000C9432
:10004E0000000C9400001027E80364000A00010071
:10005E0000100001100001000000000000000D0A59
:10006E0020796573200D0A000D0A206E6F206D61D8
:10007E0074636820776974682079200D0A0074789B
:10008E003A20706F6C6C696E67200D0A20727820B2
:10009E00696E7465727275707400010002006600FC
:1000AE000400040068000000F894EE27ECBBF1E0B9
:1000BE00FBBFEBBFE5BF8DE0A2E0BB27ED938A95BA
:1000CE00E9F780E094E0A0E6ED930197E9F7E8EA1E
:1000DE00F0E085919591009761F0A591B59105900D
:1000EE001590BF01F00105900D920197E1F7FB010C
:1000FE00F0CFEFE5EDBFE4E0EEBFC0E6D1E00C944B
:10010E00B6000A921A92FA926A937A938A939A9303
:10011E00AA93BA93EA93FA93EFB7EA931A930A93D0
:10012E001BB10CB1093719F4ECE6F0E002C0E6E7BA
:10013E00F0E0FA93EA9380E00E943602229609914B
:10014E001991E991EFBFF991E991B991A99199911D
:10015E00899179916991F990199009901895E0E03B
:10016E00EABBEBBBE7BBE8BBE4BBE5BBE1BBE2BB79
:10017E00E3BFE2BFECBFEFBDEEBDEDBDECBDE7BD35
:10018E00E6BDEBBDEABDE9BDE8BDE2BDE5BDE4BD42
:10019E00E3BDE9BFE5BFE4BFEBB9E8E9EAB9E6E8DC
:1001AE00E0BDE0E0E0BDE3E3E9B9E0E8E8B9E0E0B6
:1001BE00E0BFE6B9EDB9E6BF7894ECE8F0E0FA936B
:1001CE00EA9380E00E9436022296FFCFFFCFAA93D9
:1001DE005D9BFECFE881ECB921960895BA93AA9360
:1001EE00AA81F5DFA881B981ED91FD913196FE933B
:1001FE00EE9323960895BA93AA9326970E94A90286
:10020E0010E0AC85BD85E0E0F0E0ED93FC93EA896B
:10021E00FB893196EA8BFB8B3197E4912E2FE030E0
:10022E0009F415C1E12FE03039F4253211F411E053
:10023E0002C00E9474020AC1E130A9F4253219F4F9
:10024E000E94740202C112E040E000E02D3211F46F
:10025E0001E0FCC02B3211F44BE2F8C0203211F455
:10026E0040E2F4C002C0E23039F450E013E0203333
:10027E0011F40068EBC003C0E33009F0E7C020338F
:10028E0010F02A3308F007C0AAE05A9F502DE22F33
:10029E00E0535E0FDBC0E22FE33649F40E947B028F
:1002AE00E889F989A481AA930E948102CEC0E3371E
:1002BE0041F40E947B020E9487020E945B021E2F65
:1002CE000AC0E03761F40E947B020E9487020E94FE
:1002DE0067021E2F086002600F7730E034C0E436EC
:1002EE0011F0E93611F4046002C0E53731F4E4E5AB
:1002FE00F0E0EE83FF8315E00CC0E83511F40860E2
:10030E0003C0E83709F0A1C0EEE5F0E0EE83FF830D
:10031E0014E002FF14C00E947B020E949102AB8582
:10032E00AA233AF4EA85FB850E949D02EA87FB87A1
:10033E004DE2403011F01F5F01C00B7F04C00E94E0
:10034E007B020E94910200FD11C0151778F407FF81
:10035E0008C002FF04C00B7F242F115001C020E300
:10036E0001C020E20E9474025150EFCF312F01FFE5
:10037E0017C03030A1F003FF06C0EE81FF8125913A
:10038E00EE83FF8305C0AE81BF812D91AE83BF8307
:10039E000E947402503009F051503150EACF4BC0D8
:1003AE0020E3EE81FF810E94A502E887F987EE81A6
:1003BE00FF813296EE83FF83E885F985AA85BB859A
:1003CE00AE17BF0750F02F5FA885B985EA85FB856C
:1003DE00EA1BFB0BEA87FB87EFCF2A3328F003FFDC
:1003EE0002C0295F01C0295D04FD1AC0213320F42B
:1003FE00A885B985119709F409C0531710F000FFAD
:10040E0001C013C020E207FF0BC020E3006102FF12
:10041E0007C00B7F4A930E948102503009F0515061
:10042E000E947402503009F051503150A885B985A0
:10043E00129708F0B5CF00FF08C0503031F0515080
:10044E00E0E2EA930E948102F8CF10E0E0CEAC85A4
:10045E00BD850E94A1020E94B00264960895FF928B
:10046E00F82E26971A930A93DE0114960E9499028B
:10047E008D01E0E0EC83ED83EE83EF83DE011896D1
:10048E000E9499020E94A102FA93EA931A930A9388
:10049E00E5EFF0E0FA93EA93DE011896ACDE1981EF
:1004AE0008812896FF900895BA93AA93A991B991BD
:1004BE00EE27FF276D91662311F03196FBCF08953D
:1004CE00BA93AA93AA27BB27E991F9910590002028
:1004DE0011F01196FBCFFD0108952A93AD85BE85CF
:1004EE00EF85F88909950895E889F9893497E88B9D
:1004FE00F98B0895AD85BE85EF85F8890995089528
:10050E00A889B98914960E94A102EE83FF83AE8159
:10051E00BF810895A889B98914960E94A102EA871D
:10052E00FB8708950024AF0DB01D0895F195E19558
:10053E00F0400895ED91FC91119708950590F49176
:10054E00E02D08955A934A933A932A931A930A9355
:10055E0008955D814C813B812A811981088108951E
:00000001FF
