:0E0000000C9438000C9400000C9400000C943A
:10000E0000000C9400000C9400000C9400000C9462
:10001E0000000C9400000C9400000C9400000C9452
:10002E0000000C9400000C9400000C9400000C9442
:10003E0000000C9400000C9400000C9400000C9432
:10004E0000000C9400003F0006005B004F006600AD
:10005E006D007D0007007F006F00130060015400EB
:10006E000000F894EE27ECBBF1E0FBBFEBBFE5BF61
:10007E008DE0A2E0BB27ED938A95E9F780E094E04E
:10008E00A0E6ED930197E9F7E8E6F0E0859195910A
:10009E00009761F0A591B59105901590BF01F00103
:1000AE0005900D920197E1F7FB01F0CFEFE5EDBF63
:1000BE00E4E0EEBFC0E6D1E00C946500E0E0EABB00
:1000CE00EFEFE7BBE4BBEFE0E1BB07D019D03BD0CD
:1000DE0037D04CD091D0FCCFFFCF5524E4E05E1644
:1000EE0070F4EFEFE8BBA4EFB1E00E94D301E0E0C3
:1000FE00E8BBA4EFB1E00E94D3015394EFCF089573
:10010E001A930A9301E010E0EFEFE7BB5524E4E108
:10011E005E1698F408BBA6E9B0E00E94D301A2E0F7
:10012E00A09FF001A19FF00D8F010138E0E01E07A6
:10013E0010F001E010E05394EACF0991199108955F
:10014E00E9B3E8BB0895E0E0E2BBE9E05E2EEFEF35
:10015E00E51559F0E52DA0E6B1E0F0E0D4D0A8EE1B
:10016E00B3E00E94D3015A94F2CF089524970E94CF
:10017E000102E9B3F0E0EE83FF83AE81BF81EAE0D6
:10018E000E94E501EE83FF83AE81BF81109780F15F
:10019E00C1D08F01AE81BF81C2D0C6D0AE81BF812A
:1001AE00CAD0CED0AE81BF81D2D0E887F987552490
:1001BE00E4E15E1698F4E7E0E2BBE885F985CCD081
:1001CE00CED0D4D0EDE0E2BBF901C6D0C8D0EEE07F
:1001DE00E2BBF801C1D0C3D05394EACFA8ECB0E093
:1001EE000E94D301EE81FF813297EE83FF83CCCF45
:1001FE000E9408022A9608952A970E940102E9B3E6
:10020E00F0E0EC87FD87AC85BD85EAE00E94E50154
:10021E00EA87FB87EAE00E94E501E887F987A8856F
:10022E00B985109708F46BC084990FC0A885B9855D
:10023E00EAE0F0E00E94EB01E887F987A885B9852E
:10024E00EAE00E94E501E887F98785990EC0A88546
:10025E00B9857DD0EE83FF83A885B985E4E6F0E00D
:10026E000E94EB01A4E6B0E08ED086990BC0A88563
:10027E00B98561D0EE83FF83A885B9854BD0A8EEF2
:10028E00B3E081D0879905C0A885B98548D0E887A5
:10029E00F987E885F985EA87FB87AA85BB853AD079
:1002AE008F01AA85BB853BD03FD0AA85BB8543D0A5
:1002BE0047D0AA85BB854BD0EE87FF875524E4E156
:1002CE005E1698F4E7E0E2BBEE85FF8545D047D099
:1002DE004DD0EDE0E2BBF9013FD041D0EEE0E2BB04
:1002EE00F8013AD03CD05394EACFE885F98532979D
:1002FE00E887F987A8ECB0E00E94D30190CF0E9466
:10030E00080260960895EE0FFF1FAE0FBF1FEC910F
:10031E00E5BB0895E8EEF3E00E94EB010895E8EEE8
:10032E00F3E00E94FE010895DF01E4E6F0E00E9492
:10033E00EB019F010895E4E6F0E00E94FE010895AE
:10034E00DF01EAE0F0E00E94EB01AF010895EAE080
:10035E00F0E00E94FE010895A0E6B1E0D4CFA4E043
:10036E00B0E00E94D301EFE0E2BB0895EBE0E2BB08
:10037E00FA01A0E6B1E0EE0FFF1FAE0FBF1FEC912A
:10038E00E058E5BBECCF0E94DD01AE81BF81EA0FE4
:10039E00FB1FE887F9870895109639F080ED97E0F6
:1003AE000197F1F7A8951197C9F70895FA9FF02DC7
:1003BE00EB9FF00DEA9FE02DF10D08956E2F6A9FD1
:1003CE00F0016B9FF00D08950024112490E1AA0F07
:1003DE00BB1F001C111C0E1A1F0A18F40E0E1F1E36
:1003EE0001C0A1609A9599F7FD01D0010895ECDF47
:1003FE00FD0108955A934A933A932A931A930A93B6
:10040E0008955D814C813B812A811981088108956F
:00000001FF
