:100000000C9453000C9400000C9400000C9400001D
:100010000C9400000C9400000C9400000C94000060
:100020000C9400000C9400000C9400000C94000050
:100030000C9400000C9400000C9400000C94000040
:100040000C9400000C9400000C9400000C94000030
:100050000C9400001027E80364000A00010000105F
:100060000001100001000D0A656E74657220796F41
:100070007572206E616D653A0D0A000D0A796F7513
:1000800072206E616D652069733A203C3C25733E99
:100090003E0A002573003C3C202573203E3E000DA7
:1000A0000A25730A0000F894EE27ECBBF1E0FBBFD1
:1000B000EBBFE5BF8DE0A2E0BB27ED938A95E9F7A2
:1000C00080E094E0A0E6ED930197E9F7EFE5EDBF5E
:1000D000E4E0EEBFC0E6D1E00C946E0004D00E94D4
:1000E000B700FDCFFFCF08D011D024D027D031D01A
:1000F00035D037D039D00895E0E0EABBEBBBE7BBA1
:10010000E8BBE4BBE5BBE1BBE2BB0895E0E0E3BFD5
:10011000E2BFECBFEFBDEEBDEDBDECBDE7BDE6BDA2
:10012000EBBDEABDE9BDE8BDE2BDE5BDE4BDE3BDB3
:10013000E9BF0895E0E0E5BFE4BF0895E0E0EBB972
:10014000E8E1EAB9E6E8E0BDE0E0E0BDE3E3E9B913
:100150000895E0E8E8B9E0E0E0BF0895E0E0E6B93E
:100160000895E0E0EDB90895E0E0E6BF08952D9729
:10017000E6E6F0E0FA93EA9380E00E9452022296CB
:10018000FE01FA93EA93AEE0B0E00E94E200EBE7F2
:10019000F0E0FA93EA93FE013296662777270E94F1
:1001A000C50284E00E94520226962D9608955F9B18
:1001B000FECFECB10895AA935D9BFECFE881ECB928
:1001C00021960895BA93AA930E94CA020E811F81B4
:1001D00028853985002E012AD9F0E9DF5E2F5830B5
:1001E00051F4AE81BF810A171B0720F42150304023
:1001F0000F5F1F4FF2CF5A3059F03F932F932F5F6D
:100200003F4FE52FAF91BF91EC9301501040E2CFEB
:10021000D901E0E0EC93E885F9850E94D1022A96A5
:100220000895BA93AA93AA81C6DFA881B981ED91F6
:10023000FD913196FE93EE9323960895BA93AA9377
:1002400026970E94CA0210E0AC85BD85E0E0F0E090
:10025000ED93FC93EA89FB893196EA8BFB8B31970E
:10026000E4912E2FE03009F415C1E12FE03039F48C
:10027000253211F411E002C00E9490020AC1E1305F
:10028000A9F4253219F40E94900202C112E040E064
:1002900000E02D3211F401E0FCC02B3211F44BE2EE
:1002A000F8C0203211F440E2F4C002C0E23039F468
:1002B00050E013E0203311F40068EBC003C0E330DA
:1002C00009F0E7C0203310F02A3308F007C0AAE095
:1002D0005A9F502DE22FE0535E0FDBC0E22FE33632
:1002E00049F40E949702E889F989A481AA930E949F
:1002F0009D02CEC0E33741F40E9497020E94A30200
:100300000E9477021E2F0AC0E03761F40E94970214
:100310000E94A3020E9483021E2F086002600F77D2
:1003200030E034C0E43611F0E93611F4046002C064
:10033000E53731F4E4E5F0E0EE83FF8315E00CC02F
:10034000E83511F4086003C0E83709F0A1C0EEE514
:10035000F0E0EE83FF8314E002FF14C00E949702D6
:100360000E94AD02AB85AA233AF4EA85FB850E9480
:10037000B902EA87FB874DE2403011F01F5F01C0F0
:100380000B7F04C00E9497020E94AD0200FD11C0C5
:10039000151778F407FF08C002FF04C00B7F242F55
:1003A000115001C020E301C020E20E949002515090
:1003B000EFCF312F01FF17C03030A1F003FF06C08F
:1003C000EE81FF812591EE83FF8305C0AE81BF8161
:1003D0002D91AE83BF830E949002503009F051509E
:1003E0003150EACF4BC020E3EE81FF810E94C10271
:1003F000E887F987EE81FF813296EE83FF83E885F7
:10040000F985AA85BB85AE17BF0750F02F5FA88579
:10041000B985EA85FB85EA1BFB0BEA87FB87EFCFF3
:100420002A3328F003FF02C0295F01C0295D04FDC3
:100430001AC0213320F4A885B985119709F409C0A1
:10044000531710F000FF01C013C020E207FF0BC0DC
:1004500020E3006102FF07C00B7F4A930E949D02C8
:10046000503009F051500E949002503009F0515024
:100470003150A885B985129708F0B5CF00FF08C0A4
:10048000503031F05150E0E2EA930E949D02F8CFE3
:1004900010E0E0CEAC85BD850E94BD020E94D10275
:1004A00064960895FF92F82E26971A930A93DE0118
:1004B00014960E94B5028D01E0E0EC83ED83EE839B
:1004C000EF83DE0118960E94B5020E94BD02FA93E6
:1004D000EA931A930A93E1E1F1E0FA93EA93DE01D9
:1004E0001896ACDE198108812896FF900895BA937A
:1004F000AA93A991B991EE27FF276D91662311F078
:100500003196FBCF0895BA93AA93AA27BB27E99106
:10051000F9910590002011F01196FBCFFD0108958F
:100520002A93AD85BE85EF85F88909950895E889F8
:10053000F9893497E88BF98B0895AD85BE85EF85F1
:10054000F88909950895A889B98914960E94BD0271
:10055000EE83FF83AE81BF810895A889B98914967F
:100560000E94BD02EA87FB8708950024AF0DB01DED
:100570000895F195E195F0400895ED91FC91119762
:1005800008950590F491E02D08957A936A93FA9373
:10059000EA9308955A934A933A932A931A930A93A3
:1005A00008955D814C813B812A81198108810895DC
:00000001FF
