S00F000070726F6A6563742E737265631E
S11300000C942A000C943F000C943F000C943F0085
S11300100C943F000C943F000C943F000C943F0060
S11300200C943F000C9429010C943F000C94EA00BA
S11300300C943F000C943F000C943F000C943F0040
S11300400C943F000C943F000C943F000C943F0030
S11300500C943F0011241FBECFE5D8E0DEBFCDBF16
S113006010E0A0E6B0E0E6EDF2E002C005900D92EB
S1130070A239B107D9F70E94BD000C9469010C9410
S11300800000009769F020E030E0E9EFF0E03197FC
S1130090F1F700C000002F5F3F4F28173907A9F779
S11300A008958BBBC098C198C29A81E090E00E94E9
S11300B04100C29884E690E00E94410008958BBB01
S11300C0C09AC198C29A81E090E00E944100C2980F
S11300D084E690E00E94410008958FEF8ABB87BBBD
S11300E0C29880ED97E00E94410088E30E9451008D
S11300F08EE00E94510081E00E94510084E190E072
S11301000E94410086E00E9451000895CF93DF933E
S113011000D000D0CDB7DEB790E8998390EC9A83F5
S113012094E99B8394ED9C83FE01E60FF11D8150BD
S11301309081890F0E9451008AE090E00E94410062
S11301400F900F900F900F90DF91CF9108950F9320
S11301501F93CF93FC018081882359F08F01C0E065
S11301600E945F00CF5FF801EC0FF11D80818111C7
S1130170F7CFCF911F910F9108950E946D0061E018
S113018081E00E94860080E690E00E94A7008AE059
S113019090E00E9441008AB382688ABB80E682BFF5
S11301A081E083BF9DEF9DBD90E89CBD1FBC8EBDCB
S11301B085E089BF78940E946D0061E081E00E942F
S11301C0860080E690E00E94A7008AE090E00E940A
S11301D04100F1CF1F920F920FB60F9211242F936B
S11301E03F934F935F936F937F938F939F93AF93BB
S11301F0BF93EF93FF930E946D0061E081E00E9442
S113020086008EE690E00E94A70062E081E00E94F2
S113021086008EE790E00E94A7008AE090E00E94AA
S11302204100789480E682BF9BB382E089278BBB30
S1130230FF91EF91BF91AF919F918F917F916F91BA
S11302405F914F913F912F910F900FBE0F901F9090
S113025018951F920F920FB60F9211242F933F936C
S11302604F935F936F937F938F939F93AF93BF93BA
S1130270EF93FF930E946D0061E081E00E9486008D
S113028082E890E00E94A70062E081E00E9486007C
S11302908EE790E00E94A7008AE090E00E9441006F
S11302A078948DEF8DBD80E88CBD8BB380588BBB6B
S11302B0FF91EF91BF91AF919F918F917F916F913A
S11302C05F914F913F912F910F900FBE0F901F9010
S10902D01895F894FFCF1D
S11302D6696E69742070726F6772616D6D0054493E
S11302E64D4552305F4F56465F76656374004953F9
S11302F6520054494D4552315F4F56465F76656309
S105030674007D
S9030000FC
