:100000000C9486000C94F7000C94FB000C940000F8
:100010000C9400000C9400000C9410010C9414013A
:100020000C9400000C94FF000C9400000C94000051
:100030000C9400000C9400000C9400000C94000040
:100040000C9400000C9400000C9405010C9400002A
:100050000C9400001027E80364000A00010000105F
:10006000000110000100000000000000000000007E
:1000700053657373696F6E340A00E8036A01760191
:100080007E0130303A30303A30303A30300043453B
:100090003A3030303000303030303030300043458E
:1000A0003A46554C4C2A2A0043453A2534642A2ABC
:1000B000002532643A2532643A2532643A253264A6
:1000C0000053657373696F6E340A000080C00A00C4
:1000D000040066000A0060017000020094017A00CA
:1000E0000C006A018200020090017C000800760189
:1000F0008E00020092017E0008007E0196000A0038
:100100008601C1000200A001CC000000F894EE2797
:10011000ECBBF1E0FBBFEBBFE5BF8DE0A2E0BB278E
:10012000ED938A95E9F780E094E0A0E6ED930197DE
:10013000E9F7EEECF0E085919591009761F0A591DB
:10014000B59105901590BF01F00105900D920197B2
:10015000E1F7FB01F0CFEFE5EDBFE4E0EEBFC0E675
:10016000D1E00C94B300789402D0FFCFFFCF04D03D
:100170000FD018D034D00895E0E0EABBEBBBE7BB6A
:10018000E8BBE4BBE5BBE0E3E1BBE0E0E2BB089534
:10019000EBB7E06EEBBFEAE0E5BFE0E0E4BFE0EE26
:1001A000EABF0895E3E0E3BFE3E8E2BFE0E0ECBFCD
:1001B000E0E5EFBDE9ECEEBDE0E0EDBDECBDE7BD97
:1001C000E6BDE7E2EBBDEFE0EABDE0E0E9BDE8BD9A
:1001D000E2BDE5BDE4BDE3BDE9E5E9BF0895A0E109
:1001E0000E94AD020E949D04A0E6B1E044C10E94BD
:1001F000A2042DD01EC00E94A20475D01AC00E9475
:10020000A204E3E8E2BF83D014C00E94A204A1E4E8
:10021000D4D0A2E4D2D02AD1E0E0EDBDECBD09C03B
:100220000E94A204A1E403C00E94A204A2E4C5D0DB
:100230001DD1E991EFBFF991E991B991A9919991F6
:10024000899179916991F990199009901895B799C8
:1002500007C0A0919401B09195010E9406070CF08F
:1002600006C0A4E9B1E0ED91FD91319710C0B399BA
:1002700008C0A0919401B0919501A83EE3E0BE07AB
:100280000CF007C0A4E9B1E0ED91FD913196FE9329
:10029000EE93E0919401F0919501309759F40E940A
:1002A000B004EEE9F0E0FA93EA9380E00E94500493
:1002B000249610C00E94B004E8EAF0E0FA93EA93B2
:1002C000E0919401F09195010E94B70484E00E94AE
:1002D00050042896E0E0EA93A1E0EFD0A0919201CB
:1002E000B0919301C8C0DD2011F4B59B01C008C0D6
:1002F000AA24BB24882499246624772444245524E2
:10030000B49903C0E1E0DE2E01C0DD240895EAE0E7
:10031000EC1511F0C39401C0CC24E1E0ED1509F413
:1003200021D0E0919001F0919101FA93EA93E1EBF1
:10033000F0E0FA93EA93F2010E94B704F3010E94FD
:10034000B704F4010E94B704F5010E94B70480E1EC
:100350000E94500464960E949D04A0919001B09167
:10036000910189C0E3E6F0E0EA15FB0511F5AA2446
:10037000BB24EBE3F0E0E815F905B9F488249924EF
:10038000E615F70571F466247724E3E6F0E0E4155A
:10039000F50519F44424552403C0F20131962F01C8
:1003A00003C0F30131963F0103C0F40131964F01C0
:1003B00003C0F50131965F010895AA93E9B3FF27C1
:1003C00066277727E0939601F09397016093980151
:1003D000709399010E94BC040E947B05AAE9B1E1D7
:1003E00085E795E40E94FE05A0E0B0E088EC92E489
:1003F0000E94AE05A6E9B1E00E9444050E94F806FD
:100400000E94BC040E94AD06A0E0B2E18AE790E041
:100410000E94DC06E0939A01F0939B0160939C019B
:1004200070939D01A881A13439F40E94C504EBBDED
:10043000E0919A01EABD09C0A881A23431F40E947A
:10044000C504E9BDE0919A01E8BD0E94BC040E9488
:100450007B05A0E0B4E284E799E40E944C06AEE993
:10046000B1E00E944405ED93FC93A4C037D00E94F4
:100470009D04A6E8B1E060D00895AA93E5B3EF70BB
:10048000AE2FE881E07FEA2BE5BB8DE08A95F1F79E
:10049000AA9A8DE08A95F1F7AA988DE08A95F1F7EE
:1004A00089C0AA93A881E9DFE881E295E883A88161
:1004B000E4DF85E88A95F1F77DC0AA93E881F0E052
:1004C000E056FE4FE081A981AE0FEBDFE981E093BA
:1004D000A401E881E093A50122960895A2E00E947C
:1004E000D104ACE0DEDFA1E00E94D104E0E0E093C3
:1004F000A501E093A4010895AA93A881AA3031F040
:10050000E091A601A091A401AE1760F0E0E0EA93AB
:10051000A091A501AF5FA093A501CFDFA881AA306C
:1005200009F448C0E091A401EF5FE093A401A89A08
:10053000A881B7DFA8983EC0BA93AA931A93A9815D
:10054000BA81ED91A983BA831E2FE03019F0A12F53
:10055000D3DFF5CF188123960895AA93E4B3E06F13
:10056000E4BBA29AA09AA19AAA98A898A998E8810F
:10057000E093A601E058E093A201E881E054E09303
:10058000A301A4E1B0E00E940B050E94D7040E94E1
:10059000D7040E94D704A0E270DF88EC90E00197B6
:1005A000F1F7A8E27EDFA4E07CDFA5E87ADFA6E031
:1005B00078DF94DF21960895BA93AA931A930A9349
:1005C000AA81BB8112960E94F406309759F1AA8144
:1005D000BB8114960E94F4068F01309761F00230BF
:1005E000E0E01E0798F0F80131978F01AA81BB81E6
:1005F0001496ED93FC93AA81BB811296ED91FD9127
:100600003196FE93EE933197AC81A083AA81BB8192
:100610000E94F406FF232AF0ED91FD913196FE939E
:10062000EE9306C0AA81BB81EFEFFFEFED93FC9341
:100630001981088125960895BA93AA9326970E9456
:100640000A0710E0AC85BD85E0E0F0E0ED93FC9397
:10065000EA89FB893196EA8BFB8B3197E4912E2F47
:10066000E03009F415C1E12FE03039F4253211F4FE
:1006700011E002C00E94DF040AC1E130A9F4253272
:1006800019F40E94DF0402C112E040E000E02D32C4
:1006900011F401E0FCC02B3211F44BE2F8C020321F
:1006A00011F440E2F4C002C0E23039F450E013E04B
:1006B000203311F40068EBC003C0E33009F0E7C059
:1006C000203310F02A3308F007C0AAE05A9F502DBB
:1006D000E22FE0535E0FDBC0E22FE33649F40E94C5
:1006E000E604E889F989A481AA930E94EC04CEC0AB
:1006F000E33741F40E94E6040E94F2040E9484045D
:100700001E2F0AC0E03761F40E94E6040E94F20442
:100710000E9490041E2F086002600F7730E034C002
:10072000E43611F0E93611F4046002C0E53731F423
:10073000E4E5F0E0EE83FF8315E00CC0E83511F44A
:10074000086003C0E83709F0A1C0EEE5F0E0EE83F1
:10075000FF8314E002FF14C00E94E6040E94FC0420
:10076000AB85AA233AF4EA85FB850E949506EA87C1
:10077000FB874DE2403011F01F5F01C00B7F04C0CA
:100780000E94E6040E94FC0400FD11C0151778F4D5
:1007900007FF08C002FF04C00B7F242F115001C0C7
:1007A00020E301C020E20E94DF045150EFCF312F3F
:1007B00001FF17C03030A1F003FF06C0EE81FF81BA
:1007C0002591EE83FF8305C0AE81BF812D91AE835D
:1007D000BF830E94DF04503009F051503150EACFFE
:1007E0004BC020E3EE81FF810E94FD06E887F98778
:1007F000EE81FF813296EE83FF83E885F985AA8535
:10080000BB85AE17BF0750F02F5FA885B985EA8575
:10081000FB85EA1BFB0BEA87FB87EFCF2A3328F027
:1008200003FF02C0295F01C0295D04FD1AC0213306
:1008300020F4A885B985119709F409C0531710F061
:1008400000FF01C013C020E207FF0BC020E30061DE
:1008500002FF07C00B7F4A930E94EC04503009F05E
:1008600051500E94DF04503009F051503150A8859A
:10087000B985129708F0B5CF00FF08C0503031F0AD
:100880005150E0E2EA930E94EC04F8CF10E0E0CE91
:10089000AC85BD850E94F4060E94110764960895F8
:1008A000FF92F82E26970E940C070E9404053097AD
:1008B00019F4EFEFFFEF23C0DE0116960E949106B8
:1008C0008D010E940405EE83FF83E0E0E887E9875D
:1008D000DE011A960E9491060E94F406FA93EA93AA
:1008E0001A930A93ECEDF2E0FA93EA93DE011A967A
:1008F000A3DE9F01AE81BF81E0E0EC93F9010E948D
:1009000013072A96FF900895BA93AA93A991B991D3
:10091000EE27FF276D91662311F03196FBCF0895E6
:10092000BA93AA93AA27BB27E991F99105900020D1
:1009300011F01196FBCFFD010895E0E0EA93A0E0ED
:100940000C945D020A921A92FA926A937A938A93AD
:100950009A93AA93BA93EA93FA93EFB7EA93089516
:10096000E0919201F0919301FA93EA9308950E9425
:10097000B2060E9401070895E0919601F091970157
:1009800060919801709199010895A0919A01B09198
:100990009B0180919C0190919D01E8E00E94A1063D
:1009A00008950E945102A3E0B0E00C940B05A0E36F
:1009B0000E943D0288EC90E00197F1F708952A9398
:1009C000AD85BE85EF85F88909950895E889F9898F
:1009D0003497E88BF98B0895AD85BE85EF85F8894E
:1009E00009950895A889B98914960E94F406EE83A2
:1009F000FF83AE81BF810895A889B98914960E94AA
:100A0000F406EA87FB870895DE011C960E94910692
:100A10000E94F4060895109639F080ED97E0019752
:100A2000F1F7A8951197C9F70895552342F4503866
:100A300011F4E0FF04C03196691F791F6BF050E894
:100A4000572711F45F93C8C05F3F31F0660F000C69
:100A500057956795752F08955F9300200AF0C8C0D9
:100A6000C1C050E8192E1522880F991F9527550FE0
:100A7000879550E8072E0522660F771F7527550FBB
:100A800067950895689401C0E8945F93F2DF703829
:100A900018F07F3F08F4A0C056E1571BAAF4519507
:100AA00058300EF4593030F0EFEFFFEF6FEF7FE783
:100AB00077F91AC077275523B9F0EE0FFF1F661F8D
:100AC000771F5A95D1F710C07727583028F0EF2FAD
:100AD000F62F672F5850F9CF552331F0769567954B
:100AE000F795E7955A95D1F700200AF422D15F9146
:100AF0000895689401C0E894309760407040B1F068
:100B0000002426F0772312F4009413D1172E7EE1EF
:100B1000112032F07A95EE0FFF1F661F111CF9CFDE
:100B2000EF2FF62F612D5F938ADF5F9108954F932A
:100B3000AF01FD01DA01AB01BC01CA01402D012C5E
:100B4000142E4F910895EA0FFB1F681F0895E0953A
:100B5000F0956095EF5FFF4F6F4F08955F9381DFD2
:100B6000903839F1703821F1572F591B2BF112F4BD
:100B7000DEDFFACF583118F0AA27BB278827583074
:100B800028F0AB2FB82F88275850F9CF552329F0DC
:100B90008695B795A7955A95D9F7502D512572F09E
:100BA000D2DF38F46795F795E795739513F420C075
:100BB000BEDF45DF5F910895D8F7FBCFEA1BFB0B43
:100BC000680B51F010F40094C2DF662392F3EE0F2D
:100BD000FF1F661F7A95CBF7EE27FF27662777273B
:100BE0005F910895EFEFFFEF6FE77FEF5F9108955B
:100BF000EFEFFFEF6FE77FE75F9108955F9331DFDE
:100C0000703851F3903841F301240894791F23F48C
:100C10001CF300203AF3ECCF0F921F932F933F93D6
:100C20004F93112722279927689FA0018F9F302D6E
:100C3000410D591F6B9F300D411D591F8E9F27D0AD
:100C4000BF9F25D06A9F23D0BE9F1DD0AF9F1BD0D2
:100C5000AE9F110D291F391F491F591FE32FF42F74
:100C6000652F522F4F913F912F911F910F90662327
:100C70002AF0550FEE1FFF1F661F02C073954BF23F
:100C8000D4DE5F910895100D211D391F02C0200D83
:100C9000311D491F591F08955F93E3DE703821F419
:100CA00011200AF49FCFA4CF903809F495CF0124E6
:100CB0000894970B1BF4D4F30020F3CF792F1F93E4
:100CC0002F933F934F931124112722273327442733
:100CD000552790E2AE17BF078607410730F0AE1BDD
:100CE000BF0B860B410B089401C08894551F221F2F
:100CF000331F111CAA1FBB1F881F441F9A9551F751
:100D0000F901612D4F913F912F911F91662332F090
:100D1000550FEE1FFF1F661F7A9543F286DE5F9127
:100D200008950024AF0DB01D0895F195E195F040B0
:100D30000895F09560957095E195FF4F6F4F7F4F47
:100D40000895EE230E2EFD01BC0131F075956795D7
:100D5000F795E7950A94D1F70895EE0FFF1F661FE8
:100D6000771F08956F2F660F660B762F08953F93B8
:100D70004F935F93002411244427552730E2AA0F94
:100D8000BB1F881F991F001C111C441F551F0E1AE2
:100D90001F0A460B570B28F40E0E1F1E461F571F27
:100DA00001C0A1603A9559F7FD01BC01D001CA010B
:100DB0005F914F913F91089504D0D9DF0EF4B9DFD0
:100DC0000895E89477FF02C0B4DF689497FF0BC0E2
:100DD0000024A095B095809590951196801D901D4A
:100DE00000F8039400FA0895ED91FC91119708958D
:100DF000ED93FD936D937C9308950590F491E02D10
:100E000008957A936A93FA93EA93089500240A1650
:100E10000B0608955A934A933A932A931A930A9386
:100E200008955D814C813B812A8119810881089553
:00000001FF
