:100000000C942A000C9400000C9400000C94000046
:100010000C9400000C9445000C9400000C9400001B
:100020000C9400000C9400000C9400000C94000050
:100030000C9400000C9400000C9400000C94000040
:100040000C9400000C9400000C9400000C94000030
:100050000C940000F894EE27ECBBF1E0FBBFEBBF83
:10006000E5BF8DE0A2E0BB27ED938A95E9F780E03C
:1000700094E0A0E6ED930197E9F7EFE5EDBFE4E04A
:10008000EEBFC0E6D1E00C9446001895E0E0EABB74
:10009000EBBBE8E0E7BBE0E0E8BBE4BBE5BBE1BB12
:1000A000E2BBE2E6E3BFE0E0E2BFE3E3ECBFE0E0B7
:1000B000EFBDE1E4EEBDE0E0EDBDECBDE7BDE6BDCA
:1000C000EBBDEABDE9BDE8BDE2BDE5BDE4BDE3BD14
:1000D000E0E2E9BFE0E0E5BFE4BFEAB9E0E8E8B9A3
:1000E000E0E0E0BFE6B9EDB9E6BF7894FFCFFFCF1F
:00000001FF
