S00D0000736F616C332E7372656335
S11300000C942A000C943F000C943F000C943F0085
S11300100C943F000C943F000C943F000C943F0060
S11300200C943F000C945C010C943F000C94E00091
S11300300C943F000C943F000C943F000C943F0040
S11300400C943F000C943F000C943F000C943F0030
S11300500C943F0011241FBECFE5D8E0DEBFCDBF16
S113006010E0A0E6B0E0ECE7F9E002C005900D92E4
S1130070A63AB107D9F70E94BD000C94BC040C94B5
S11300800000009769F020E030E0E9EFF0E03197FC
S1130090F1F700C000002F5F3F4F28173907A9F779
S11300A008958BBBC098C198C29A81E090E00E94E9
S11300B04100C29884E690E00E94410008958BBB01
S11300C0C09AC198C29A81E090E00E944100C2980F
S11300D084E690E00E94410008958FEF8ABB87BBBD
S11300E0C29888EC90E00E94410088E30E9451008D
S11300F08EE00E94510081E00E94510088EC90E063
S11301000E94410086E00E9451000895CF93DF933E
S113011000D000D0CDB7DEB790E8998390EC9A83F5
S113012094E99B8394ED9C83FE01E60FF11D8150BD
S11301309081890F0E94510084E690E00E94410062
S11301400F900F900F900F90DF91CF9108950F9320
S11301501F93CF93FC018081882359F08F01C0E065
S11301600E945F00CF5FF801EC0FF11D80818111C7
S1130170F7CFCF911F910F9108950E946D0061E018
S113018081E00E94860082E690E00E94A70062E07F
S113019081E00E94860080E790E00E94A7008AB375
S11301A082688ABB80E682BF81E083BF9DEF9DBDEC
S11301B090E89CBD1FBC8EBD85E089BF7894FFCFBD
S11301C01F920F920FB60F9211240F931F932F9328
S11301D03F934F935F936F937F938F939F93AF93CB
S11301E0BF93EF93FF93CF93DF93CDB7DEB72A97F7
S11301F0DEBFCDBF80916000909161000197909324
S11302006100809360009F938F938AE790E09F93AF
S11302108F938E010F5F1F4F1F930F930E94D20184
S11302200E946D0061E081E00E94860086E890E013
S11302300E94A70062E081E00E948600C8010E943B
S1130240A7008AE090E00E9441000F900F900F9069
S11302500F900F900F908091600090916100892B16
S113026009F0789480E682BF9BB382E089278BBB38
S11302708091600090916100019690936100809359
S113028060002A960FB6F894DEBF0FBECDBFDF9193
S1130290CF91FF91EF91BF91AF919F918F917F91FA
S11302A06F915F914F913F912F911F910F910F90FB
S11302B00FBE0F901F9018951F920F920FB60F92BA
S11302C011240F931F932F933F934F935F936F9337
S11302D07F938F939F93AF93BF93EF93FF93CF93AA
S11302E0DF93CDB7DEB72A97DEBFCDBF8091600024
S11302F090916100019790936100809360009F93B7
S11303008F938AE790E09F938F938E010F5F1F4F27
S11303101F930F930E94D2010E946D0061E081E05F
S11303200E94860086E990E00E94A70062E081E0D6
S11303300E948600C8010E94A7008AE090E00E9403
S113034041008DEF8DBD80E88CBD8BB380588BBB95
S11303508091600090916100019690936100809378
S113036060000F900F900F900F900F900F902A96AF
S11303700FB6F894DEBF0FBECDBFDF91CF91FF91D2
S1130380EF91BF91AF919F918F917F916F915F9109
S11303904F913F912F911F910F910F900FBE0F908E
S11303A01F901895AEE0B0E0E8EDF1E00C949304F2
S11303B00D891E8986E08C831A8309838FEF9FE75A
S11303C09E838D83AE01475E5F4F6F89788DCE012A
S11303D001960E94F401EF81F885E00FF11F10826D
S11303E02E96E4E00C94AF04ABE0B0E0EAEFF1E069
S11303F00C9485046C017B018A01FC01178216822E
S1130400838181FFCCC1CE0101963C01F601938129
S1130410F70193FD859193FF81917F01882309F46E
S1130420BAC1853239F493FD859193FF81917F019F
S1130430853229F4B60190E00E94EB03E7CF912CBA
S1130440212C312CFFE1F315D8F08B3279F038F4FC
S1130450803279F08332A1F4232D20611DC08D32C6
S113046061F0803369F4232D216016C0832D8260EE
S1130470382EE32DE4603E2E2AC0F32DF8601DC013
S113048037FC2DC020ED280F2A3040F08E32B9F40D
S113049036FC81C1232D2064322E19C036FE06C0DD
S11304A08AE0989E200D1124922E11C0EAE02E9E1F
S11304B0200D1124222EF32DF0623F2E08C08C361D
S11304C021F4832D8068382E02C0883641F4F70168
S11304D093FD859193FF81917F018111B3CF982F73
S11304E09F7D9554933028F40C5F1F4F9FE39983AD
S11304F00DC0833631F0833771F0833509F059C06C
S113050021C0F801808189830E5F1F4F8824839462
S1130510912C530113C02801F2E04F0E511CF80135
S1130520A080B18036FE03C0692D70E002C06FEF79
S11305307FEFC5010E94E0034C018201F32DFF7798
S11305403F2E16C0280122E0420E511CF801A08063
S1130550B18036FE03C0692D70E002C06FEF7FEFFB
S1130560C5010E94D5034C01F32DF0683F2E820192
S113057033FC1BC0822D90E088169906B0F4B601B6
S113058080E290E00E94EB032A94F4CFF50137FC5B
S1130590859137FE81915F01B60190E00E94EB03E3
S11305A021102A9421E0821A91088114910471F790
S11305B0E8C0843611F0893641F5F80137FE07C0EA
S11305C060817181828193810C5F1F4F08C06081BB
S11305D07181072E000C880B990B0E5F1F4FF32DB2
S11305E0FF763F2E97FF09C0909580957095619591
S11305F07F4F8F4F9F4FF0683F2E2AE030E0A301DA
S11306000E942704882E861845C0853731F4232D8F
S11306102F7EB22E2AE030E025C0932D997FB92E8B
S11306208F36C1F018F4883579F0B5C0803719F0E9
S1130630883721F0B0C0E92FE061BE2EB4FE0DC0B2
S1130640FB2DF460BF2E09C034FE0AC0292F26609A
S1130650B22E06C028E030E005C020E130E002C040
S113066020E132E0F801B7FE07C060817181828128
S113067093810C5F1F4F06C06081718180E090E020
S11306800E5F1F4FA3010E942704882E8618FB2D9E
S1130690FF773F2E36FE0DC0232D2E7FA22E891408
S11306A058F434FE0BC032FC09C0832D8E7EA82E74
S11306B005C0B82CA32C03C0B82C01C0B92CA4FECF
S11306C00FC0FE01E80DF11D8081803321F49A2DC5
S11306D0997EA92E09C0A2FE06C0B394B39404C0A7
S11306E08A2D867809F0B394A3FC11C0A0FE06C03D
S11306F0B21488F4280C922C9B180EC0B21460F427
S1130700B60180E290E00E94EB03B394F7CFB214F9
S113071018F42B1802C0982C212CA4FE10C0B6018A
S113072080E390E00E94EB03A2FE17C0A1FC03C08B
S113073088E790E002C088E590E0B6010CC08A2DFD
S1130740867859F0A1FE02C08BE201C080E2A7FCCA
S11307508DE2B60190E00E94EB03891438F4B601EF
S113076080E390E00E94EB039A94F7CF8A94F3011C
S1130770E80DF11D8081B60190E00E94EB03811029
S1130780F5CF222009F442CEB60180E290E00E9427
S1130790EB032A94F6CFF6018681978102C08FEF8E
S11307A09FEF2B96E2E10C94A104FC0105906150AB
S11307B070400110D8F7809590958E0F9F1F089573
S11307C0FC016150704001900110D8F7809590951C
S11307D08E0F9F1F08950F931F93CF93DF93FB01F9
S11307E0238121FD03C08FEF9FEF2CC022FF16C091
S11307F046815781248135814217530744F4A081EF
S1130800B1819D012F5F3F4F318320838C932681DB
S113081037812F5F3F4F3783268314C08B01EC0150
S1130820FB010084F185E02D0995892BE1F6D801BF
S113083016968D919C911797019617969C938E937B
S11308401697CE01DF91CF911F910F910895FA0170
S1130850AA27283051F1203181F1E8946F936E7FFB
S11308606E5F7F4F8F4F9F4FAF4FB1E03ED0B4E0EC
S11308703CD0670F781F891F9A1FA11D680F791F2D
S11308808A1F911DA11D6A0F711D811D911DA11D3E
S113089020D009F468943F912AE0269F112430194E
S11308A0305D3193DEF6CF010895462F4770405DE9
S11308B04193B3E00FD0C9F7F6CF462F4F70405D98
S11308C04A3318F0495D31FD4052419302D0A9F7F3
S11308D0EACFB4E0A6959795879577956795BA95ED
S11308E0C9F700976105710508959B01AC010A2EB3
S11308F006945795479537952795BA95C9F7620F8A
S1130900731F841F951FA01D08952F923F924F922D
S11309105F926F927F928F929F92AF92BF92CF928B
S1130920DF92EF92FF920F931F93CF93DF93CDB794
S1130930DEB7CA1BDB0B0FB6F894DEBF0FBECDBF0C
S113094009942A88398848885F846E847D848C84DD
S11309509B84AA84B984C884DF80EE80FD800C81E6
S11309601B81AA81B981CE0FD11D0FB6F894DEBFC9
S10F09700FBECDBFED010895F894FFCF39
S113097C0300696E69742070726F6772616D6D002B
S113098C6D61696E207061727400696E7465727247
S113099C75702025640054494D4552305F4F5646BE
S11309AC5F766563740054494D4552315F4F56462A
S10909BC5F766563740020
S9030000FC
