:0E0000000C944B000C9400000C9400000C9427
:10000E0000000C9400000C9400000C9400000C9462
:10001E0000000C9400000C9400000C9478000C94DA
:10002E0000000C9400000C9400000C9400000C9442
:10003E0000000C9400000C9400000C9400000C9432
:10004E0000000C9400001027E80364000A00010071
:10005E000010000110000100253364004D2053658F
:10006E006E643A20004D20726563696576653A20AC
:10007E00000080C0090060016A000C006901730075
:10008E000200750180000000F894EE27ECBBF1E051
:10009E00FBBFEBBFE5BF8DE0A2E0BB27ED938A95DA
:1000AE00E9F780E094E0A0E6ED930197E9F7E2E846
:1000BE00F0E085919591009761F0A591B59105902D
:1000CE001590BF01F00105900D920197E1F7FB012C
:1000DE00F0CFEFE5EDBFE4E0EEBFC0E6D1E00C946B
:1000EE00A5000A921A92FA926A937A938A939A9335
:1000FE00AA93BA93EA93FA93EFB7EA9325971A93D2
:10010E001FB1FE0131960E944703ECE0EA93A1E095
:10011E000E941901DE0111960E9447011881269650
:10012E00E991EFBFF991E991B991A99199918991CD
:10013E0079916991F990199009901895259710E089
:10014E00E0E0EABBEBBBE0EBE7BBE0E0E8BBE4BB27
:10015E00E5BBE1BBE2BBE3BFE2BFECBFEFBDEEBD73
:10016E00EDBDECBDE7BDE6BDEBBDEABDE9BDE8BD4D
:10017E00E2BDE5BDE4BDE3BDE9BFE5BFE4BFEAB95D
:10018E00E0E8E8B9E0E0E0BFE6B9E0EDEDB9E0E0C7
:10019E00EEB9EEB1EFB1E0E0E6BFA0E182D0789427
:1001AE00E0E0EA93A0E03ED0A0E6B1E069D0E0E066
:1001BE00EA93A1E037D0A9E6B1E062D01FB9FE0103
:1001CE000E944703EAE0EA93A0E02CD0DE0158D06B
:1001DE001F5F103808F010E0A8EEB3E00E94920303
:1001EE00EDCFFFCFAA93EBB3EF70AE2FE881E07F98
:1001FE00EA2BEBBB8DE08A95F1F7DA9A8DE08A95C2
:10020E00F1F7DA988DE08A95F1F777C0AA93A88175
:10021E00E9DFE881E295E883A881E4DF85E88A9545
:10022E00F1F76BC0AA93E881F0E0EB58FE4FE08146
:10023E00A981AE0FEBDF5980488022960895A2E087
:10024E000E945803ACE0E2DFA1E00E945803E0E018
:10025E004E2E5E2E0895AA93A881AA3011F057143F
:10026E0048F0E0E0EA934394A42DDCDFA881AA30A5
:10027E0009F443C05394D89AA881C8DFD8983DC0DA
:10028E00BA93AA931A93A981BA81ED91A983BA83DD
:10029E001E2FE03019F0A12FDEDFF5CF1881239647
:1002AE000895AA93EAB3E06FEABBD29AD09AD19A94
:1002BE00DA98D898D9987880E881E058E093770159
:1002CE00E881E054E0937801A4E1B0E00E9492034B
:1002DE000E945E030E945E030E945E03A0E282DF24
:1002EE0088EC90E00197F1F7A8E290DFA4E08EDFB2
:1002FE00A5E88CDFA6E08ADFA2DF21960895BA93E7
:10030E00AA931A930A93AA81BB8112960E94A40300
:10031E00309759F1AA81BB8114960E94A4038F01D4
:10032E00309761F00230E0E01E0798F0F801319747
:10033E008F01AA81BB811496ED93FC93AA81BB8198
:10034E001296ED91FD913196FE93EE933197AC811D
:10035E00A083AA81BB810E94A403FF232AF0ED9102
:10036E00FD913196FE93EE9306C0AA81BB81EFEF0D
:10037E00FFEFED93FC931981088125960895BA93AA
:10038E00AA9326970E94B10310E0AC85BD85E0E0EC
:10039E00F0E0ED93FC93EA89FB893196EA8BFB8BB7
:1003AE003197E4912E2FE03009F415C1E12FE030A2
:1003BE0039F4253211F411E002C00E9466030AC11D
:1003CE00E130A9F4253219F40E94660302C112E04D
:1003DE0040E000E02D3211F401E0FCC02B3211F4AC
:1003EE004BE2F8C0203211F440E2F4C002C0E23019
:1003FE0039F450E013E0203311F40068EBC003C071
:10040E00E33009F0E7C0203310F02A3308F007C0BC
:10041E00AAE05A9F502DE22FE0535E0FDBC0E22F71
:10042E00E33649F40E946D03E889F989A481AA9301
:10043E000E947303CEC0E33741F40E946D030E9405
:10044E0079030E942E031E2F0AC0E03761F40E942A
:10045E006D030E9479030E943A031E2F086002600A
:10046E000F7730E034C0E43611F0E93611F4046051
:10047E0002C0E53731F4E4E5F0E0EE83FF8315E0EA
:10048E000CC0E83511F4086003C0E83709F0A1C0CC
:10049E00EEE5F0E0EE83FF8314E002FF14C00E944D
:1004AE006D030E948303AB85AA233AF4EA85FB858C
:1004BE000E94A003EA87FB874DE2403011F01F5FD8
:1004CE0001C00B7F04C00E946D030E94830300FDD8
:1004DE0011C0151778F407FF08C002FF04C00B7F88
:1004EE00242F115001C020E301C020E20E946603B8
:1004FE005150EFCF312F01FF17C03030A1F003FF65
:10050E0006C0EE81FF812591EE83FF8305C0AE818B
:10051E00BF812D91AE83BF830E946603503009F0D8
:10052E0051503150EACF4BC020E3EE81FF810E9443
:10053E00A803E887F987EE81FF813296EE83FF8369
:10054E00E885F985AA85BB85AE17BF0750F02F5FEA
:10055E00A885B985EA85FB85EA1BFB0BEA87FB8735
:10056E00EFCF2A3328F003FF02C0295F01C0295DB7
:10057E0004FD1AC0213320F4A885B985119709F41A
:10058E0009C0531710F000FF01C013C020E207FF8F
:10059E000BC020E3006102FF07C00B7F4A930E944D
:1005AE007303503009F051500E946603503009F029
:1005BE0051503150A885B985129708F0B5CF00FF7C
:1005CE0008C0503031F05150E0E2EA930E947303BC
:1005DE00F8CF10E0E0CEAC85BD850E94A4030E944A
:1005EE00B80364960895FF92F82E26970E94B303DF
:1005FE000E948B03309719F4EFEFFFEF23C0DE015B
:10060E0016960E949C038D010E948B03EE83FF833E
:10061E00E0E0E887E987DE011A960E949C030E94BB
:10062E00A403FA93EA931A930A93E6E8F1E0FA9395
:10063E00EA93DE011A96A3DE9F01AE81BF81E0E050
:10064E00EC93F9010E94BA032A96FF900895BA938B
:10065E00AA93A991B991EE27FF276D91662311F008
:10066E003196FBCF0895BA93AA93AA27BB27E99197
:10067E00F9910590002011F01196FBCFFD01089520
:10068E00FA93EA93E6E6F0E0FA93EA93E12FFF2776
:10069E00662777270E94AC0384E00E94FA02289610
:1006AE0008950E940D01A3E0B0E00C949203A0E324
:1006BE000E94F90088EC90E00197F1F708952A93D3
:1006CE00AD85BE85EF85F88909950895E889F98984
:1006DE003497E88BF98B0895AD85BE85EF85F88943
:1006EE0009950895A889B98914960E94A403EE83EA
:1006FE00FF83AE81BF810895A889B98914960E949F
:10070E00A403EA87FB870895DE011C960E949C03D2
:10071E000E94A4030895109639F080ED97E001979A
:10072E00F1F7A8951197C9F708950024AF0DB01DE4
:10073E000895F195E195F0400895ED91FC91119792
:10074E0008950590F491E02D08957A936A93FA93A3
:10075E00EA9308955A934A933A932A931A930A93D3
:10076E0008955D814C813B812A811981088108950C
:00000001FF
