:040000000C944B0011
:100004000C9400000C9400000C9400000C9400006C
:100014000C9400000C9400000C9400000C9400005C
:100024000C9400000C9478000C9400000C940000D4
:100034000C9400000C9400000C9400000C9400003C
:100044000C9400000C9400000C9400000C9400002C
:100054001027E80364000A000100001000011000EA
:10006400010025336400532053656E643A20005325
:1000740020726563696576653A20000080C00900D6
:1000840060016A000C0069017300020076018000BF
:100094000000F894EE27ECBBF1E0FBBFEBBFE5BF3B
:1000A4008DE0A2E0BB27ED938A95E9F780E094E028
:1000B400A0E6ED930197E9F7E2E8F0E085919591E8
:1000C400009761F0A591B59105901590BF01F001DD
:1000D40005900D920197E1F7FB01F0CFEFE5EDBF3D
:1000E400E4E0EEBFC0E6D1E00C94BC000A921A92A0
:1000F400FA926A937A938A939A93AA93BA93EA9315
:10010400FA93EFB7EA9325971A931FB1E09175011B
:10011400EFB90E944A03E12F0E945303ECE0EA93F3
:10012400A1E00E945D030E944A03E09175010E94D0
:100134005303EAE0EA93A0E00E945D03E0917501B5
:10014400ED5FE0937501A0917501A03818F0E0E02F
:10015400E093750118812696E991EFBFF991E99131
:10016400B991A9919991899179916991F99019908D
:1001740009901895E0E0EABBEBBBE0E4E7BBE0E004
:10018400E8BBE4BBE5BBE1BBE2BBE3BFE2BFECBF62
:10019400EFBDEEBDEDBDECBDE7BDE6BDEBBDEABD1B
:1001A400E9BDE8BDE2BDE5BDE4BDE3BDE9BFE5BF32
:1001B400E4BFEAB9E0E8E8B9E0E0E0BFE6B9E0ECC2
:1001C400EDB9E0E0EEB9EEB1EFB1E0E0E6BFA0E1F9
:1001D40070D0E0E0EA93A0E02DD0A0E6B1E058D0E2
:1001E400E0E0EA93A1E026D0A9E6B1E051D078940A
:1001F400FFCFFFCFAA93E5B3EF70AE2FE881E07F86
:10020400EA2BE5BB8DE08A95F1F7AA9A8DE08A95F1
:10021400F1F7AA988DE08A95F1F777C0AA93A8819F
:10022400E9DFE881E295E883A881E4DF85E88A953F
:10023400F1F76BC0AA93E881F0E0EA58FE4FE08141
:10024400A981AE0FEBDF5980488022960895A2E081
:100254000E946303ACE0E2DFA1E00E946303E0E0FC
:100264004E2E5E2E0895AA93A881AA3011F0571439
:1002740048F0E0E0EA934394A42DDCDFA881AA309F
:1002840009F443C05394A89AA881C8DFA8983DC034
:10029400BA93AA931A93A981BA81ED91A983BA83D7
:1002A4001E2FE03019F0A12FDEDFF5CF1881239641
:1002B4000895AA93E4B3E06FE4BBA29AA09AA19A2A
:1002C400AA98A898A9987880E881E058E0937801E2
:1002D400E881E054E0937901A4E1B0E00E949D0339
:1002E4000E9469030E9469030E946903A0E282DFFD
:1002F40088EC90E00197F1F7A8E290DFA4E08EDFAC
:10030400A5E88CDFA6E08ADFA2DF21960895BA93E0
:10031400AA931A930A93AA81BB8112960E94AF03EF
:10032400309759F1AA81BB8114960E94AF038F01C3
:10033400309761F00230E0E01E0798F0F801319741
:100344008F01AA81BB811496ED93FC93AA81BB8192
:100354001296ED91FD913196FE93EE933197AC8117
:10036400A083AA81BB810E94AF03FF232AF0ED91F1
:10037400FD913196FE93EE9306C0AA81BB81EFEF07
:10038400FFEFED93FC931981088125960895BA93A4
:10039400AA9326970E94BC0310E0AC85BD85E0E0DB
:1003A400F0E0ED93FC93EA89FB893196EA8BFB8BB1
:1003B4003197E4912E2FE03009F415C1E12FE0309C
:1003C40039F4253211F411E002C00E9471030AC10C
:1003D400E130A9F4253219F40E94710302C112E03C
:1003E40040E000E02D3211F401E0FCC02B3211F4A6
:1003F4004BE2F8C0203211F440E2F4C002C0E23013
:1004040039F450E013E0203311F40068EBC003C06A
:10041400E33009F0E7C0203310F02A3308F007C0B6
:10042400AAE05A9F502DE22FE0535E0FDBC0E22F6B
:10043400E33649F40E947803E889F989A481AA93F0
:100444000E947E03CEC0E33741F40E9478030E94E9
:1004540084030E9431031E2F0AC0E03761F40E9416
:1004640078030E9484030E943D031E2F08600260EB
:100474000F7730E034C0E43611F0E93611F404604B
:1004840002C0E53731F4E4E5F0E0EE83FF8315E0E4
:100494000CC0E83511F4086003C0E83709F0A1C0C6
:1004A400EEE5F0E0EE83FF8314E002FF14C00E9447
:1004B40078030E948E03AB85AA233AF4EA85FB8570
:1004C4000E94AB03EA87FB874DE2403011F01F5FC7
:1004D40001C00B7F04C00E9478030E948E0300FDBC
:1004E40011C0151778F407FF08C002FF04C00B7F82
:1004F400242F115001C020E301C020E20E947103A7
:100504005150EFCF312F01FF17C03030A1F003FF5E
:1005140006C0EE81FF812591EE83FF8305C0AE8185
:10052400BF812D91AE83BF830E947103503009F0C7
:1005340051503150EACF4BC020E3EE81FF810E943D
:10054400B303E887F987EE81FF813296EE83FF8358
:10055400E885F985AA85BB85AE17BF0750F02F5FE4
:10056400A885B985EA85FB85EA1BFB0BEA87FB872F
:10057400EFCF2A3328F003FF02C0295F01C0295DB1
:1005840004FD1AC0213320F4A885B985119709F414
:1005940009C0531710F000FF01C013C020E207FF89
:1005A4000BC020E3006102FF07C00B7F4A930E9447
:1005B4007E03503009F051500E947103503009F00D
:1005C40051503150A885B985129708F0B5CF00FF76
:1005D40008C0503031F05150E0E2EA930E947E03AB
:1005E400F8CF10E0E0CEAC85BD850E94AF030E9439
:1005F400C30364960895FF92F82E26970E94BE03C3
:100604000E949603309719F4EFEFFFEF23C0DE0149
:1006140016960E94A7038D010E949603EE83FF8322
:10062400E0E0E887E987DE011A960E94A7030E94AA
:10063400AF03FA93EA931A930A93E9E8F1E0FA9381
:10064400EA93DE011A96A3DE9F01AE81BF81E0E04A
:10065400EC93F9010E94C5032A96FF900895BA937A
:10066400AA93A991B991EE27FF276D91662311F002
:100674003196FBCF0895BA93AA93AA27BB27E99191
:10068400F9910590002011F01196FBCFFD0108951A
:10069400FE013196FA93EA93E6E6F0E0FA93EA93E0
:1006A4000895FF27662777270E94B70384E00E94F6
:1006B400FD02289608950E941C01DE0111960C94F7
:1006C4004A010E941001A3E0B0E00C949D03A0E352
:1006D4000E94FC0088EC90E00197F1F708952A93BA
:1006E400AD85BE85EF85F88909950895E889F9896E
:1006F4003497E88BF98B0895AD85BE85EF85F8892D
:1007040009950895A889B98914960E94AF03EE83C8
:10071400FF83AE81BF810895A889B98914960E9488
:10072400AF03EA87FB870895DE011C960E94A703A6
:100734000E94AF030895109639F080ED97E0019779
:10074400F1F7A8951197C9F708950024AF0DB01DCE
:100754000895F195E195F0400895ED91FC9111977C
:1007640008950590F491E02D08957A936A93FA938D
:10077400EA9308955A934A933A932A931A930A93BD
:1007840008955D814C813B812A81198108810895F6
:00000001FF
