:100000000C9438000C9400000C9400000C94000038
:100010000C9400000C9400000C9400000C94000060
:100020000C9400000C9400000C9400000C94000050
:100030000C9400000C9400000C9400000C94000040
:100040000C9400000C9400000C9400000C94000030
:100050000C9400003F0006005B004F0066006D003E
:100060007D0007007F006F00130060015400000056
:10007000F894EE27ECBBF1E0FBBFEBBFE5BF8DE0F2
:10008000A2E0BB27ED938A95E9F780E094E0A0E633
:10009000ED930197E9F7E8E6F0E0859195910097F7
:1000A00061F0A591B59105901590BF01F001059003
:1000B0000D920197E1F7FB01F0CFEFE5EDBFE4E032
:1000C000EEBFC0E6D1E00C946500E3E0F0E0FA9307
:1000D000EA93A8ECB0E05FD076D0E0EAF0E1FA93E2
:1000E000EA93E3E0EA93A4E0B0E081D0F5CFFFCF5C
:1000F000AA931A930A9300E010E0EA81F0E0E1305D
:10010000A0E0FA0721F4E0E0EABB09B317C0E2304F
:10011000A0E0FA0721F4E0E0E7BB06B30FC0E3304C
:10012000A0E0FA0721F4E0E0E4BB03B307C0E43049
:10013000A0E0FA0721F4E0E0E1BB00B31127F801E9
:100140001981088126C0AA93E881F0E0E130A0E09F
:10015000FA0729F4EFEFEABBE981EBBB1AC0E23002
:10016000A0E0FA0729F4EFEFE7BBE981E8BB11C093
:10017000E330A0E0FA0729F4EFEFE4BBE981E5BB47
:1001800008C0E430A0E0FA0721F4EFEFE1BBE98119
:10019000E2BB23960895BA93AA931A930A9300E0B8
:1001A00010E0EC81FD810E171F074CF4E0E0F0E059
:1001B00074D0EFEFF0E071D00F5F1F4FF2CF1981D5
:1001C0000881269608951A930A93A1E091DF8F0182
:1001D000A4E1B0E00E946C011A930A93A2E0B3DF9D
:1001E000A4E1B0E00E946C01099119910895BA93BD
:1001F000AA9324970E94B201AD85BE85E8EEF3E094
:100200000E948D018F01AD85BE85E8EEF3E00E946E
:100210009201DF01E4E6F0E00E948D019F01AD85CF
:10022000BE85E4E6F0E00E949201DF01EAE0F0E042
:100230000E948D01AF01AD85BE85EAE0F0E00E942D
:100240009201E887F987E0E0EE83EF83AE81BF811A
:100250005497FCF4E7E0F0E028D0E885F98529D050
:10026000EBE0F0E022D0FA0124D0EDE0F0E01DD088
:10027000F9011FD0EEE0F0E018D0F8011AD0A5E0A7
:10028000B0E00E946C01EE81FF813196EE83FF8326
:10029000DDCF0E94B9012F960895FA93EA93A2E068
:1002A00052DFAA81BB810C946C01FA93EA93AC856E
:1002B0004ACFA0E6B1E0EE0FFF1FAE0FBF1F0E94B6
:1002C000AE01FA93EA93AE853EDFA5E0B0E00E946E
:1002D0006C01EFE0F0E0E9CF109639F080ED97E0A7
:1002E0000197F1F7A8951197C9F70895F195E19550
:1002F000F04008950024112490E1AA0FBB1F001CB8
:10030000111C0E1A1F0A18F40E0E1F1E01C0A16048
:100310009A9599F7FD01D001089512D0EBDF0EF404
:10032000E5DF0895E894B7FF04C0A095B095119655
:100330006894F7FDDBDFDEDFFD010EF4D7DF089503
:10034000E894F7FF02C0D2DF6894B7FF06C0A0951B
:10035000B095119600F8039400FA0895ED91FC9180
:10036000119708955A934A933A932A931A930A93AA
:1003700008955D814C813B812A811981088108950E
:00000001FF
