:020000000C945E
:100002002A000C9400000C9400000C9400000C9444
:1000120000000C9400000C9400000C9400000C945E
:1000220000000C9445000C9400000C9400000C9409
:1000320000000C9400000C9400000C9400000C943E
:1000420000000C9400000C9400000C9466000C94C8
:100052000000F894EE27ECBBF1E0FBBFEBBFE5BF7D
:100062008DE0A2E0BB27ED938A95E9F780E094E06A
:10007200A0E6ED930197E9F7EFE5EDBFE4E0EEBF0F
:10008200C0E6D1E00C9467000A921A929A93AA935E
:10009200BA93EA93FA93EFB7EA93E0E0EABBE9B3E3
:1000A200ABEDEA9FF001E25DF040DF01EEE7F0E048
:1000B2000E94AE00ECBFE991EFBFF991E991B991CD
:1000C200A99199911990099018951895E0E0EABBC9
:1000D200EBBBE8E0E7BBE0E0E8BBE4BBE5BBE1BBD0
:1000E200E2BBE9E6E3BFE0E0E2BFEAE1ECBFE0E069
:1000F200EFBDEEBDEDBDECBDE7BDE6BDEBBDEABDBE
:10010200E9BDE8BDE2BDE5BDE4BDE3BDE3E0E9BFB5
:10011200E0E0E5BFE4BFEAB9E0E8E8B9E0E0E0BF6B
:10012200E6B9EDB9E6BF7894FFCFFFCFF195E1953F
:10013200F04008950024112490E1AA0FBB1F001C77
:10014200111C0E1A1F0A18F40E0E1F1E01C0A16008
:100152009A9599F7FD01D001089504D0EBDF0EF4D2
:10016200E5DF0895E894F7FF02C0E0DF6894B7FF87
:1001720006C0A095B095119600F8039400FA089570
:00000001FF
