:080000000C9469000C9400004F
:100008000C9400000C9400000C9400000C94000068
:100018000C9400000C9400000C9400000C94000058
:100028000C9400000C9496000C9400000C94B400FE
:100038000C9400000C9400000C9400000C94000038
:100048000C9400000C9400000C9400001027E803A6
:1000580064000A0001000010000110000100000007
:1000680000000000000000000D0A20536C61766556
:1000780020446576696365000D0A205265636569E9
:1000880076696E67203A20202020202020002564F1
:1000980020202020000D0A2053656E64696E6720B9
:1000A8003A202020202020200000010002006600C5
:1000B800080004006800100060017000160070015C
:1000C8008000140086019D000000F894EE27ECBB28
:1000D800F1E0FBBFEBBFE5BF8DE0A2E0BB27ED93EE
:1000E8008A95E9F780E094E0A0E6ED930197E9F7B7
:1000F800E2EBF0E085919591009761F0A591B591BB
:1001080005901590BF01F00105900D920197E1F758
:10011800FB01F0CFEFE5EDBFE4E0EEBFC0E6D1E0D4
:100128000C94F300EA93FA93EFB7EA931A930A93BD
:100138001BB10CB1E12FEC7161F4E52D5394F0E0A3
:10014800E656FE4F0083F30131963F0111F468949F
:1001580020F809911991E991EFBFF991E991189562
:100168000A92EA93FA93EFB7EA930A2C0B2851F014
:10017800F50131975F01E82D8394F0E0E656FD4FD5
:10018800E081ECB9E991EFBFF991E99109901895EF
:10019800AA93E0E0F1E0EA15FB05D9F3F8940A2CFC
:1001A8000B2811F45D990BC0E92D9394F0E0E65605
:1001B800FD4FA881A083F50131965F0102C0E88157
:1001C800ECB9789421960895E0E0EBB9E8EDEAB946
:1001D800E6E8E0BDE0E0E0BDE3E3E9B908952A9789
:1001E80010E0F2DFA0E2B0E026D0A0E6B1E00E9485
:1001F800CB0128D0309761F4A0E7B1E00E94CB0191
:1002080095D01E2F0E94A1031F3FD1F710E011C007
:10021800E130A0E0FA0769F414E1A6E8B1E00E9431
:10022800CB01A12F42D03E2F0E94A1031F5F303087
:10023800C1F3DFCFFFCFBA93AA93E881E2B9E4EC28
:10024800E6BF2FC02297E6B7E078E9F3E1B1E87F8F
:10025800F0E0E883F983A881B981A036E0E0BE0721
:1002680021F0A836E0E0BE0719F4E0E0F0E019C09C
:10027800A881B981A83AE0E0BE0721F0A03BE0E000
:10028800BE0719F4E1E0F0E00CC0A881B981A037FD
:10029800E0E0BE0721F0A837E0E0BE0721F4E2E085
:1002A800F0E0229608952296CDCFAA931A930A9346
:1002B800EA81E3B9E4ECE6BFE6B7E078E9F3E1B157
:1002C800E87F0E2F1127E0EAF0E0E017F10741F48C
:1002D800E6B7E068E6BFEFEFFFEF198108816AC073
:1002E800E8EBF0E0E017F10729F4E0E0F0E019812D
:1002F800088160C0E0ECF0E0E017F10741F4E6B7F0
:10030800E068E6BFEEEFFFEF1981088153C0E8EC23
:10031800F0E0E017F10729F4EDEFFFEF198108810C
:1003280049C0ECEFFFEF1981088144C01A930A9382
:10033800E4ECE6BFE6B7E078E9F3E1B1E87F0E2F39
:100348001127E0E8F0E0E017F10729F0E0E9F0E034
:10035800E017F10711F4E3B117C0E8E8F0E0E0179F
:10036800F10729F0E8E9F0E0E017F10711F4E3B14B
:100378000BC0E0EAF0E0E017F10729F4E6B7E0681F
:10038800E6BFEFEF01C0EEEF099119910895BA9316
:10039800AA931A93A981BA81ED91A983BA831E2FD2
:1003A800E03021F0A12F0E94CC00F4CFAAE00E94F7
:1003B800CC00188123960895BA93AA931A930A93A6
:1003C800AA81BB8112960E94E903309759F1AA814C
:1003D800BB8114960E94E9038F01309761F00230C7
:1003E800E0E01E0798F0F80131978F01AA81BB81E0
:1003F8001496ED93FC93AA81BB811296ED91FD9121
:100408003196FE93EE933197AC81A083AA81BB818C
:100418000E94E903FF232AF0ED91FD913196FE93A6
:10042800EE9306C0AA81BB81EFEFFFEFED93FC933B
:100438001981088125960895BA93AA9326970E9450
:10044800F60310E0AC85BD85E0E0F0E0ED93FC93A9
:10045800EA89FB893196EA8BFB8B3197E4912E2F41
:10046800E03009F415C1E12FE03039F4253211F4F8
:1004780011E002C00E94B5030AC1E130A9F4253297
:1004880019F40E94B50302C112E040E000E02D32E9
:1004980011F401E0FCC02B3211F44BE2F8C0203219
:1004A80011F440E2F4C002C0E23039F450E013E045
:1004B800203311F40068EBC003C0E33009F0E7C053
:1004C800203310F02A3308F007C0AAE05A9F502DB5
:1004D800E22FE0535E0FDBC0E22FE33649F40E94BF
:1004E800BC03E889F989A481AA930E94C203CEC0FB
:1004F800E33741F40E94BC030E94C8030E948803AA
:100508001E2F0AC0E03761F40E94BC030E94C80392
:100518000E9494031E2F086002600F7730E034C0F9
:10052800E43611F0E93611F4046002C0E53731F41D
:10053800E4E5F0E0EE83FF8315E00CC0E83511F444
:10054800086003C0E83709F0A1C0EEE5F0E0EE83EB
:10055800FF8314E002FF14C00E94BC030E94D20370
:10056800AB85AA233AF4EA85FB850E94E503EA876E
:10057800FB874DE2403011F01F5F01C00B7F04C0C4
:100588000E94BC030E94D20300FD11C0151778F425
:1005980007FF08C002FF04C00B7F242F115001C0C1
:1005A80020E301C020E20E94B5035150EFCF312F64
:1005B80001FF17C03030A1F003FF06C0EE81FF81B4
:1005C8002591EE83FF8305C0AE81BF812D91AE8357
:1005D800BF830E94B503503009F051503150EACF23
:1005E8004BC020E3EE81FF810E94ED03E887F98785
:1005F800EE81FF813296EE83FF83E885F985AA852F
:10060800BB85AE17BF0750F02F5FA885B985EA856F
:10061800FB85EA1BFB0BEA87FB87EFCF2A3328F021
:1006280003FF02C0295F01C0295D04FD1AC0213300
:1006380020F4A885B985119709F409C0531710F05B
:1006480000FF01C013C020E207FF0BC020E30061D8
:1006580002FF07C00B7F4A930E94C203503009F083
:1006680051500E94B503503009F051503150A885BF
:10067800B985129708F0B5CF00FF08C0503031F0A7
:100688005150E0E2EA930E94C203F8CF10E0E0CEB6
:10069800AC85BD850E94E9030E94FD036496089518
:1006A800FF92F82E26970E94F8030E94DA033097EB
:1006B80019F4EFEFFFEF23C0DE0116960E94E10365
:1006C8008D010E94DA03EE83FF83E0E0E887E98783
:1006D800DE011A960E94E1030E94E903FA93EA9365
:1006E8001A930A93E0EEF1E0FA93EA93DE011A9680
:1006F800A3DE9F01AE81BF81E0E0EC93F9010E9487
:10070800FF032A96FF900895BA93AA93A991B991E5
:10071800EE27FF276D91662311F03196FBCF0895E0
:10072800BA93AA93AA27BB27E991F99105900020CB
:1007380011F01196FBCFFD010895FE01FA93EA939B
:10074800E6E9F0E0FA93EA93E12FFF276627772797
:100758000E94F10384E00E9454032896DE010C9461
:10076800CB012A93AD85BE85EF85F8890995089553
:10077800E889F9893497E88BF98B0895AD85BE85AA
:10078800EF85F88909950895A889B98914960E9472
:10079800E903EE83FF83AE81BF810895A889B989F3
:1007A80014960E94E903EA87FB870895DE011C96E8
:1007B8000E94E1030E94E90308950024AF0DB01DD3
:1007C8000895F195E195F0400895ED91FC91119708
:1007D80008950590F491E02D08957A936A93FA9319
:1007E800EA9308955A934A933A932A931A930A9349
:1007F80008955D814C813B812A8119810881089582
:00000001FF
