:060000000C943B010C947E
:1000060000000C9400000C9400000C9400000C946A
:1000160000000C9400000C9400000C9400000C945A
:1000260000000C9400000C9400000C9400000C944A
:1000360000000C9400000C9400000C9400000C943A
:1000460000000C9400000C9400000C9400000507BE
:100056002060000000000000005F000000070007AD
:1000660000147F147F14242A7F2A12231308646243
:1000760036495522500005030000001C22410000AD
:1000860041221C00082A1C2A0808083E08080050BD
:10009600300000080808080800303000002010086A
:1000A60004023E5149453E00427F400042615149AB
:1000B600462141454B311814127F102745454539D5
:1000C6003C4A494930017109050336494949360612
:1000D6004949291E00363600000056360000000841
:1000E600142241141414141441221408000201515C
:1000F6000906324979413E7E1111117E7F494949EF
:10010600363E414141227F4141221C7F49494941B6
:100116007F090901013E414151327F0808087F00ED
:10012600417F41002040413F017F081422417F402A
:100136004040407F0204027F7F0408107F3E414119
:10014600413E7F090909063E4151215E7F09192971
:1001560046464949493101017F01013F4040403F40
:100166001F2040201F7F2018207F6314081463037C
:1001760004780403615149454300007F414102046C
:1001860008102041417F0000040201020440404063
:100196004040000102040020545454787F484444EF
:1001A600383844444420384444487F38545454181A
:1001B600087E090102081454543C7F0804047800A0
:1001C600447D40002040443D00007F10284400410B
:1001D6007F40007C041804787C0804047838444482
:1001E60044387C14141408081414187C7C0804047D
:1001F600084854545420043F4440203C4040207C4E
:100206001C2040201C3C4030403C44281028440C14
:100216005050503C4464544C4400083641000000A1
:100226007F0000004136080002010204027F4141BE
:10023600417F0500000000000000000000000000F3
:1002460000000000000103070F1F3F7FFF000102AF
:1002560004081020408001002D4E414E00494E46B4
:10026600000008007D015402010088015C020000C4
:10027600F894EE27ECBBF1E0FBBFEBBFE5BF8DE0EA
:10028600A2E0BB27ED938A95E9F780E094E0A0E62B
:10029600ED930197E9F7E8E6F2E0859195910097ED
:1002A60061F0A591B59105901590BF01F0010590FB
:1002B6000D920197E1F7FB01F0CFEFE5EDBFE4E02A
:1002C600EEBFC0E6D1E00C94680110E0EFEFEABBA8
:1002D600E7BB8F9A10E01830B8F49798E12FA8E39F
:1002E600B2E0F0E0EE0FFF1FEA0FFB1F049008BA22
:1002F600E12FF0E0E358FE4FE081EBBBA1E0B0E078
:100306000E9489011F5FE7CFE5CFFFCF109639F036
:1003160080ED97E00197F1F7A8951197C9F7089531
:00000001FF
