:080000000C9433000C94000085
:100008000C9400000C9400000C9400000C94000068
:100018000C9400000C9400000C9400000C94000058
:100028000C9400000C9400000C9400000C94000048
:100038000C9400000C9400000C9400000C94000038
:100048000C9400000C9400000C9400001027E803A6
:1000580064000A0001000010000110000100F8947B
:10006800EE27ECBBF1E0FBBFEBBFE5BF8DE0A2E004
:10007800BB27ED938A95E9F780E094E0A0E6ED933D
:100088000197E9F7EFE5EDBFE4E0EEBFC0E6D1E0A8
:100098000C944E00E0E0EABBEBBBE7BBE8BBE4BB7B
:1000A800E5BBE1BBE2BBE3BFE2BFECBFEFBDEEBD2A
:1000B800EDBDECBDE7BDE6BDEBBDEABDE9BDE8BD04
:1000C800E2BDE5BDE4BDE3BDE9BFE5BFE4BFEBB913
:1000D800E8E1EAB9E6E8E0BDE0E0E0BDE3E3E9B97C
:1000E800E0E8E8B9E0E0E0BFE6B9EDB9E6BF05D081
:1000F8001E2FA12F06D0FBCFFFCF5F9BFECFECB109
:100108000895AA935D9BFECFE881ECB921960895E6
:00000001FF
